:020000040800F2
:10000000005000201D0800086D0800086D08000859
:100010006D0800086D0800086D0800080000000069
:100020000000000000000000000000006D08000853
:100030006D080008000000006D0800082505000894
:100040006D0800086D0800086D0800086D080008BC
:100050006D0800086D080008010500086D0800081B
:100060006D0800086D0800086D0800086D0800089C
:100070006D0800086D0800086D0800086D0800088C
:100080006D0800086D0800086D0800086D0800087C
:100090006D0800086D0800086D0800086D0800086C
:1000A0006D0800086D0800086D0800086D0800085C
:1000B0006D0800086D0800086D0800086D0800084C
:1000C0006D0800086D0800086D0800086D0800083C
:1000D0006D0800086D0800086D0800086D0800082C
:1000E0006D0800086D080008000000006D08000899
:1000F0006D0800086D0800086D0800086D0800080C
:100100006D0800086D0800086D0800086D080008FB
:100110006D0800086D0800086D0800086D080008EB
:100120006D0800086D0800086D0800086D080008DB
:1001300010B5054C237833B9044B13B10448AFF321
:1001400000800123237010BD480000200000000043
:10015000B808000808B5034B1BB103490348AFF3C7
:10016000008008BD000000004C000020B808000816
:1001700080B483B000AF03460A46FB711346BB71DF
:10018000BB791F2B2BD9FB79022B1CD0022B25DC32
:10019000002B02D0012B0BD020E0134B1B68BA7947
:1001A000012101FA02F211460F4A0B43136016E0D7
:1001B0000E4B1B68BA79012101FA02F211460B4A73
:1001C0000B4313600BE00A4B1B68BA79012101FA5B
:1001D00002F21146064A0B43136000E000BF00BF65
:1001E0000C37BD4680BC7047141002401C10024002
:1001F0001810024080B400AF044B81221A60044BF7
:1002000000221A6000BFBD4680BC7047001002404B
:100210000410024080B483B000AF0346FB710B466C
:10022000BB7113467B71FB79022B7AD0022B00F352
:10023000B180002B02D0012B3AD0ABE0BB79072B69
:1002400017D85A4B1B68BA7992000F2101FA02F2B3
:10025000D2431146554A0B401360544B1B687979C1
:10026000BA79920001FA02F21146504A0B43136028
:1002700092E0BB790F2B00F28F80BB79083BBB71FA
:100280004B4B1B68BA7992000F2101FA02F2D2435C
:100290001146474A0B401360454B1B687979BA7980
:1002A000920001FA02F21146414A0B43136073E0D7
:1002B000BB79072B17D83F4B1B68BA7992000F21E7
:1002C00001FA02F2D24311463A4A0B401360394B0D
:1002D0001B687979BA79920001FA02F21146354A1F
:1002E0000B4313605AE0BB790F2B57D8BB79083BFF
:1002F000BB71314B1B68BA7992000F2101FA02F2EF
:10030000D24311462C4A0B4013602B4B1B68797962
:10031000BA79920001FA02F21146274A0B431360A0
:100320003CE0BB79072B17D8244B1B68BA799200A5
:100330000F2101FA02F2D2431146204A0B4013600A
:100340001E4B1B687979BA79920001FA02F21146C4
:100350001A4A0B43136023E0BB790F2B20D8BB79DB
:10036000083BBB71164B1B68BA7992000F2101FA4A
:1003700002F2D2431146124A0B401360104B1B6825
:100380007979BA79920001FA02F211460C4A0B43CC
:10039000136005E000BF04E000BF02E000BF00E022
:1003A00000BF00BF0C37BD4680BC7047000801404D
:1003B00004080140000C0140040C01400010014001
:1003C0000410014080B483B000AF0346FB710B46BC
:1003D000BB7113467B71FB79022B40D0022B5BDC97
:1003E000002B02D0012B1DD056E07B79002B0BD1C6
:1003F0002F4B1B68BA79012101FA02F2D243114650
:100400002B4A0B40136049E07B79012B46D1284BE6
:100410001B68BA79012101FA02F21146244A0B4302
:1004200013603BE07B79002B0BD1224B1B68BA7920
:10043000012101FA02F2D24311461E4A0B40136019
:100440002EE07B79012B2BD11A4B1B68BA79012145
:1004500001FA02F21146174A0B43136020E07B7940
:10046000002B0BD1144B1B68BA79012101FA02F25F
:10047000D2431146104A0B40136013E07B79012BE5
:1004800010D10D4B1B68BA79012101FA02F2114615
:10049000094A0B43136005E000BF04E000BF02E01F
:1004A00000BF00E000BF00BF0C37BD4680BC7047F6
:1004B0000C0801400C0C01400C10014080B483B0CA
:1004C00000AF0346FB71FB791F2B05D8FB79012296
:1004D0009A40094B1A600AE0FB793B2B07D8FB795D
:1004E000203BFB71FB7901229A40044B1A6000BF4C
:1004F0000C37BD4680BC704700E100E004E100E03D
:1005000080B500AF054B1B689847054B5B69044AF3
:1005100043F00103536100BF80BD00BF64000020B1
:100520000004014080B500AF084B1B78012B08D1B7
:10053000064B00221A70064B00225A60044B002220
:100540009A60044B1B68984700BF80BD6C00002078
:1005500010E000E06800002080B582B000AF0346E4
:10056000FB71FB79013B052B50D801A252F823F017
:10057000890500089F050008B5050008CB0500089F
:10058000E1050008F7050008022207210220FFF715
:1005900041FE012207210220FFF714FF37E002226B
:1005A00009210020FFF736FE012209210020FFF774
:1005B00009FF2CE0022201210020FFF72BFE01227F
:1005C00001210020FFF7FEFE21E00222032101208D
:1005D000FFF720FE012203210120FFF7F3FE16E0C2
:1005E000022204210020FFF715FE01220421002031
:1005F000FFF7E8FE0BE0022208210020FFF70AFEC9
:10060000012208210020FFF7DDFE00E000BF00BF4F
:100610000837BD4680BD00BF80B582B000AF03463D
:10062000FB71022200210020FFF7F4FD02220121CC
:100630000020FFF7EFFD022202210020FFF7EAFD74
:10064000022203210020FFF7E5FD02220421002001
:10065000FFF7E0FD022205210020FFF7DBFD02226B
:1006600006210020FFF7D6FDFA7940491346DB004A
:100670009B1A0B441B78002B0CBF01230023DBB219
:100680001A4600210020FFF79DFEFA7937491346EC
:10069000DB009B1A0B4401331B78002B0CBF01239A
:1006A0000023DBB21A4601210020FFF78BFEFA7906
:1006B0002E491346DB009B1A0B4402331B78002B98
:1006C0000CBF01230023DBB21A4602210020FFF7F2
:1006D00079FEFA7925491346DB009B1A0B44033354
:1006E0001B78002B0CBF01230023DBB21A46032129
:1006F0000020FFF767FEFA791C491346DB009B1ABE
:100700000B4404331B78002B0CBF01230023DBB206
:100710001A4604210020FFF755FEFA7913491346C3
:10072000DB009B1A0B4405331B78002B0CBF012305
:100730000023DBB21A4605210020FFF743FEFA79B9
:100740000A491346DB009B1A0B4406331B78002B27
:100750000CBF01230023DBB21A4606210020FFF75D
:1007600031FE00BF0837BD4680BD00BF000000203D
:1007700080B584B000AF0820FFF74EFFFFF73AFDC9
:1007800002210220FFF7F4FC03210220FFF7F0FC16
:1007900004210220FFF7ECFC0120FFF78FFE02226C
:1007A00001210020FFF736FD4FF47A73FB80012012
:1007B000FFF7D2FE0220FFF72FFF012201210020C8
:1007C000FFF700FE0023FB810DE00023BB8103E067
:1007D00000BFBB890133BB81FA89FB889A42F7D3FA
:1007E000FB890133FB81FA89FB889A42EDD3002310
:1007F0007B810DE000233B8103E000BF3B89013397
:100800003B817A89FB889A42F7D37B8901337B81CC
:100810007A89FB889A42EDD3CFE700000D488546E0
:10082000AFF300800C480D490D4A002302E0D45874
:10083000C4500433C4188C42F9D30A4A0A4C00232A
:1008400001E013600432A242FBD300F011F8FFF77D
:100850008FFFFEE70050002000000020480000202D
:10086000D80800084800002070000020FEE70000C3
:1008700070B500260C4D0D4C641BA410A64209D186
:1008800000F01AF800260A4D0A4C641BA410A64278
:1008900005D170BD55F8043B98470136EEE755F891
:1008A000043B98470136F2E7D0080008D00800085A
:1008B000D0080008D4080008F8B500BFF8BC08BC90
:1008C0009E467047F8B500BFF8BC08BC9E4670470E
:0408D00055010008C6
:0408D40031010008E6
:1008D8000101010101010000010100000000010106
:1008E80000010100010101010100000100010100F6
:1008F80000010101000101000101010001010101E4
:1009080001010101000000000101010101010101D3
:080918000101010001010000D2
:040000050800081DCA
:00000001FF
