:020000040800F2
:100000000050002075080008C5080008C508000851
:10001000C5080008C5080008C50800080000000061
:10002000000000000000000000000000C5080008FB
:10003000C508000800000000C508000825050008E4
:10004000C5080008C5080008C5080008C50800085C
:10005000C5080008C508000801050008C508000813
:10006000C5080008C5080008C5080008990500086B
:10007000C5080008C5080008C5080008C50800082C
:10008000C5080008C5080008C5080008C50800081C
:10009000C5080008C5080008C5080008C50800080C
:1000A000C5080008C5080008C5080008C5080008FC
:1000B000C5080008C5080008C5080008C5080008EC
:1000C000C5080008C5080008C5080008C5080008DC
:1000D000C5080008C5080008C5080008C5080008CC
:1000E000C5080008C508000800000000C508000891
:1000F000C5080008C5080008C5080008C5080008AC
:10010000C5080008C5080008C5080008C50800089B
:10011000C5080008C5080008C5080008C50800088B
:10012000C5080008C5080008C5080008C50800087B
:1001300010B5054C237833B9044B13B10448AFF321
:1001400000800123237010BD480000200000000043
:100150001009000808B5034B1BB103490348AFF36E
:10016000008008BD000000004C00002010090008BD
:1001700080B483B000AF03460A46FB711346BB71DF
:10018000BB791F2B2BD9FB79022B1CD0022B25DC32
:10019000002B02D0012B0BD020E0134B1B68BA7947
:1001A000012101FA02F211460F4A0B43136016E0D7
:1001B0000E4B1B68BA79012101FA02F211460B4A73
:1001C0000B4313600BE00A4B1B68BA79012101FA5B
:1001D00002F21146064A0B43136000E000BF00BF65
:1001E0000C37BD4680BC7047141002401C10024002
:1001F0001810024080B400AF044B81221A60044BF7
:1002000000221A6000BFBD4680BC7047001002404B
:100210000410024080B483B000AF0346FB710B466C
:10022000BB7113467B71FB79022B7AD0022B00F352
:10023000B180002B02D0012B3AD0ABE0BB79072B69
:1002400017D85A4B1B68BA7992000F2101FA02F2B3
:10025000D2431146554A0B401360544B1B687979C1
:10026000BA79920001FA02F21146504A0B43136028
:1002700092E0BB790F2B00F28F80BB79083BBB71FA
:100280004B4B1B68BA7992000F2101FA02F2D2435C
:100290001146474A0B401360454B1B687979BA7980
:1002A000920001FA02F21146414A0B43136073E0D7
:1002B000BB79072B17D83F4B1B68BA7992000F21E7
:1002C00001FA02F2D24311463A4A0B401360394B0D
:1002D0001B687979BA79920001FA02F21146354A1F
:1002E0000B4313605AE0BB790F2B57D8BB79083BFF
:1002F000BB71314B1B68BA7992000F2101FA02F2EF
:10030000D24311462C4A0B4013602B4B1B68797962
:10031000BA79920001FA02F21146274A0B431360A0
:100320003CE0BB79072B17D8244B1B68BA799200A5
:100330000F2101FA02F2D2431146204A0B4013600A
:100340001E4B1B687979BA79920001FA02F21146C4
:100350001A4A0B43136023E0BB790F2B20D8BB79DB
:10036000083BBB71164B1B68BA7992000F2101FA4A
:1003700002F2D2431146124A0B401360104B1B6825
:100380007979BA79920001FA02F211460C4A0B43CC
:10039000136005E000BF04E000BF02E000BF00E022
:1003A00000BF00BF0C37BD4680BC7047000801404D
:1003B00004080140000C0140040C01400010014001
:1003C0000410014080B483B000AF0346FB710B46BC
:1003D000BB7113467B71FB79022B40D0022B5BDC97
:1003E000002B02D0012B1DD056E07B79002B0BD1C6
:1003F0002F4B1B68BA79012101FA02F2D243114650
:100400002B4A0B40136049E07B79012B46D1284BE6
:100410001B68BA79012101FA02F21146244A0B4302
:1004200013603BE07B79002B0BD1224B1B68BA7920
:10043000012101FA02F2D24311461E4A0B40136019
:100440002EE07B79012B2BD11A4B1B68BA79012145
:1004500001FA02F21146174A0B43136020E07B7940
:10046000002B0BD1144B1B68BA79012101FA02F25F
:10047000D2431146104A0B40136013E07B79012BE5
:1004800010D10D4B1B68BA79012101FA02F2114615
:10049000094A0B43136005E000BF04E000BF02E01F
:1004A00000BF00E000BF00BF0C37BD4680BC7047F6
:1004B0000C0801400C0C01400C10014080B483B0CA
:1004C00000AF0346FB71FB791F2B05D8FB79012296
:1004D0009A40094B1A600AE0FB793B2B07D8FB795D
:1004E000203BFB71FB7901229A40044B1A6000BF4C
:1004F0000C37BD4680BC704700E100E004E100E03D
:1005000080B500AF054B1B689847054B5B69044AF3
:1005100043F00103536100BF80BD00BF64000020B1
:100520000004014080B500AF084B1B78012B08D1B7
:10053000064B00221A70064B00225A60044B002220
:100540009A60044B1B68984700BF80BD6C00002078
:1005500010E000E06800002080B483B000AF0346E4
:10056000FB710C49FA7913469B0013449B000B4422
:1005700008331B680748FA7923F0010113469B00F2
:1005800013449B0003440833196000BF0C37BD4679
:1005900080BC70470000024080B500AF024B1B6872
:1005A000984700BF80BD00BF7000002080B582B0BA
:1005B00000AF0346FB71FB79013B052B50D801A22C
:1005C00052F823F0DD050008F305000809060008CD
:1005D0001F060008350600084B0600080222072106
:1005E0000220FFF717FE012207210220FFF7EAFE93
:1005F00037E0022209210020FFF70CFE0122092129
:100600000020FFF7DFFE2CE0022201210020FFF78F
:1006100001FE012201210020FFF7D4FE21E0022289
:1006200003210120FFF7F6FD012203210120FFF73E
:10063000C9FE16E0022204210020FFF7EBFD012293
:1006400004210020FFF7BEFE0BE00222082100205B
:10065000FFF7E0FD012208210020FFF7B3FE00E0D4
:1006600000BF00BF0837BD4680BD00BF80B582B067
:1006700000AF0346FB71022200210020FFF7CAFDF4
:10068000022201210020FFF7C5FD022202210020E5
:10069000FFF7C0FD022203210020FFF7BBFD02226D
:1006A00004210020FFF7B6FD022205210020FFF7FC
:1006B000B1FD022206210020FFF7ACFDFA79404986
:1006C0001346DB009B1A0B441B78002B0CBF012345
:1006D0000023DBB21A4600210020FFF773FEFA79EF
:1006E00037491346DB009B1A0B4401331B78002B60
:1006F0000CBF01230023DBB21A4601210020FFF7C3
:1007000061FEFA792E491346DB009B1A0B44023333
:100710001B78002B0CBF01230023DBB21A460221F9
:100720000020FFF74FFEFA7925491346DB009B1A9C
:100730000B4403331B78002B0CBF01230023DBB2D7
:100740001A4603210020FFF73DFEFA791C491346A3
:10075000DB009B1A0B4404331B78002B0CBF0123D6
:100760000023DBB21A4604210020FFF72BFEFA79A2
:1007700013491346DB009B1A0B4405331B78002BEF
:100780000CBF01230023DBB21A4605210020FFF72E
:1007900019FEFA790A491346DB009B1A0B4406330B
:1007A0001B78002B0CBF01230023DBB21A46062165
:1007B0000020FFF707FE00BF0837BD4680BD00BF21
:1007C0000000002080B584B000AF0020FFF7C4FE19
:1007D0000820FFF74BFFFFF70DFD02210220FFF776
:1007E000C7FC03210220FFF7C3FC04210220FFF70E
:1007F000BFFC0120FFF762FE022201210020FFF76B
:1008000009FD4FF47A73FB800120FFF7CFFE022031
:10081000FFF72CFF012201210020FFF7D3FD002369
:10082000FB810DE00023BB8103E000BFBB890133E6
:10083000BB81FA89FB889A42F7D3FB890133FB819C
:10084000FA89FB889A42EDD300237B810DE00023D7
:100850003B8103E000BF3B8901333B817A89FB8800
:100860009A42F7D37B8901337B817A89FB889A424C
:10087000EDD3CFE70D488546AFF300800C480D4916
:100880000D4A002302E0D458C4500433C4188C42EB
:10089000F9D30A4A0A4C002301E013600432A24251
:1008A000FBD300F011F8FFF78DFFFEE700500020AA
:1008B0000000002048000020300900084800002007
:1008C00074000020FEE7000070B500260C4D0D4CB2
:1008D000641BA410A64209D100F01AF800260A4DA4
:1008E0000A4C641BA410A64205D170BD55F8043B08
:1008F00098470136EEE755F8043B98470136F2E792
:100900002809000828090008280900082C090008FF
:10091000F8B500BFF8BC08BC9E467047F8B500BFEC
:08092000F8BC08BC9E467047BC
:04092800550100086D
:04092C00310100088D
:1009300001010101010100000101000000000101AD
:10094000000101000101010101000001000101009D
:10095000000101010001010001010100010101018B
:10096000010101010000000001010101010101017B
:0809700001010100010100007A
:040000050800087572
:00000001FF
