:020000040800F2
:1000000000500020A9050008F9050008F9050008BE
:10001000F9050008F9050008F905000800000000CE
:10002000000000000000000000000000F9050008CA
:10003000F905000800000000F90500086104000847
:10004000F9050008F9050008F9050008F905000898
:10005000F9050008F9050008C5030008F9050008BE
:10006000F9050008F9050008F905000895040008DD
:10007000F9050008F9050008F9050008F905000868
:10008000F9050008F9050008F9050008F905000858
:10009000F9050008F9050008F9050008F905000848
:1000A000F9050008F9050008F9050008F905000838
:1000B000F9050008F9050008F9050008F905000828
:1000C000F9050008F9050008F9050008A904000869
:1000D000F9050008C9040008F9050008F905000839
:1000E000F9050008F905000800000000F9050008FE
:1000F000F9050008F9050008F9050008F9050008E8
:10010000F9050008F9050008F9050008F9050008D7
:10011000F9050008F9050008F9050008F9050008C7
:10012000F9050008F9050008F9050008F9050008B7
:1001300010B5054C237833B9044B13B10448AFF321
:1001400000800123237010BD00000020000000008B
:100150004406000808B5034B1BB103490348AFF33D
:10016000008008BD000000000400002044060008D4
:1001700080B483B000AF03460A46FB711346BB71DF
:10018000BB791F2B2BD9FB79022B1CD0022B25DC32
:10019000002B02D0012B0BD020E0134B1B68BA7947
:1001A000012101FA02F211460F4A0B43136016E0D7
:1001B0000E4B1B68BA79012101FA02F211460B4A73
:1001C0000B4313600BE00A4B1B68BA79012101FA5B
:1001D00002F21146064A0B43136000E000BF00BF65
:1001E0000C37BD4680BC7047141002401C10024002
:1001F0001810024080B400AF044B81221A60044BF7
:1002000000221A6000BFBD4680BC7047001002404B
:100210000410024080B483B000AF0346FB710B466C
:10022000BB7113467B71FB79022B7AD0022B00F352
:10023000B180002B02D0012B3AD0ABE0BB79072B69
:1002400017D85A4B1B68BA7992000F2101FA02F2B3
:10025000D2431146554A0B401360544B1B687979C1
:10026000BA79920001FA02F21146504A0B43136028
:1002700092E0BB790F2B00F28F80BB79083BBB71FA
:100280004B4B1B68BA7992000F2101FA02F2D2435C
:100290001146474A0B401360454B1B687979BA7980
:1002A000920001FA02F21146414A0B43136073E0D7
:1002B000BB79072B17D83F4B1B68BA7992000F21E7
:1002C00001FA02F2D24311463A4A0B401360394B0D
:1002D0001B687979BA79920001FA02F21146354A1F
:1002E0000B4313605AE0BB790F2B57D8BB79083BFF
:1002F000BB71314B1B68BA7992000F2101FA02F2EF
:10030000D24311462C4A0B4013602B4B1B68797962
:10031000BA79920001FA02F21146274A0B431360A0
:100320003CE0BB79072B17D8244B1B68BA799200A5
:100330000F2101FA02F2D2431146204A0B4013600A
:100340001E4B1B687979BA79920001FA02F21146C4
:100350001A4A0B43136023E0BB790F2B20D8BB79DB
:10036000083BBB71164B1B68BA7992000F2101FA4A
:1003700002F2D2431146124A0B401360104B1B6825
:100380007979BA79920001FA02F211460C4A0B43CC
:10039000136005E000BF04E000BF02E000BF00E022
:1003A00000BF00BF0C37BD4680BC7047000801404D
:1003B00004080140000C0140040C01400010014001
:1003C0000410014080B500AF054B1B689847054BF2
:1003D0005B69044A43F00103536100BF80BD00BF65
:1003E0001C0000200004014080B400AF0A4B1B68D1
:1003F000094A23F004031360074B1B68064A23F0E5
:1004000002031360044B1B68034A23F001031360CB
:1004100000BFBD4680BC704710E000E080B483B0F0
:1004200000AF78600D4A7B6853600C4B1B680B4A29
:1004300043F00103136000BF084B1B681B0C03F063
:100440000103002BF8D0054B00225A60034B002219
:100450009A6000BF0C37BD4680BC704710E000E0DA
:1004600080B500AF084B1B78012B08D1064B00224A
:100470001A70064B00225A60044B00229A60044B0B
:100480001B68984700BF80BD2400002010E000E0FA
:100490002000002080B500AF024B1B68984700BFCA
:1004A00080BD00BF2800002080B500AF044B1B6852
:1004B000044AD268D2B21046984700BF80BD00BF40
:1004C0002C0000200030010480B500AF024B1B68F7
:1004D000984700BF80BD00BF3000002080B584B0C9
:1004E00000AF0346FB710723FB7324E0FA7997F909
:1004F0000F3042FA03F3DBB203F00103BB73BB7BA3
:100500001A4600210020FFF785FE0022022100206C
:10051000FFF780FE0120FFF781FF0122022100206A
:10052000FFF778FE0120FFF779FF97F90F30DBB274
:10053000013BDBB2FB7397F90F30002BD6DA0022B8
:1005400001210020FFF766FE0120FFF767FF01226F
:1005500001210020FFF75EFE0120FFF75FFF00BFD3
:100560001037BD4680BD80B500AFFFF743FE0221C6
:100570000220FFF7FDFD03210220FFF7F9FD022213
:1005800000210020FFF746FE022201210020FFF794
:1005900041FE022202210020FFF73CFEFFF724FF6C
:1005A000AA20FFF79BFFFEE70D488546AFF30080CA
:1005B0000C480D490D4A002302E0D458C4500433BE
:1005C000C4188C42F9D30A4A0A4C002301E0136094
:1005D0000432A242FBD300F011F8FFF7C4FFFEE79C
:1005E00000500020000000200000002064060008E9
:1005F0000000002034000020FEE7000070B5002657
:100600000C4D0D4C641BA410A64209D100F01AF841
:1006100000260A4D0A4C641BA410A64205D170BDE9
:1006200055F8043B98470136EEE755F8043B9847E8
:100630000136F2E75C0600085C0600085C0600086C
:1006400060060008F8B500BFF8BC08BC9E467047BD
:0C065000F8B500BFF8BC08BC9E4670471F
:04065C00550100083C
:04066000310100085C
:04000005080005A941
:00000001FF
